:020000040001F9
:10C000007038002015C101002FC1010031C10100AD
:10C010000000000000000000000000000000000020
:10C0200000000000000000000000000033C101001B
:10C03000000000000000000035C1010037C1010010
:10C0400039C1010039C10100DDC4010039C101005D
:10C0500039C1010000000000F1C2010089C20100E5
:10C0600039C1010039C1010039C1010039C10100E4
:10C0700039C1010039C1010039C1010039C10100D4
:10C0800039C101003DC4010039C1010039C10100BD
:10C090005DC4010039C1010065C4010039C101005E
:10C0A00039C1010039C1010000000000000000009A
:10C0B0000000000000000000000000000000000080
:10C0C0000348854600F0ACF80048004799E00100BD
:10C0D00070380020401E00BF00BF00BF00BF00BF7F
:10C0E00000BF00BF00BF00BF00BF00BF00BFF1D155
:10C0F00070470000401E00BF00BF00BF00BF00BF70
:10C1000000BF00BF00BF00BF00BF00BF00BFF1D134
:10C11000704700000321094802680A43026008488A
:10C1200002680A4302600748804707480047FEE765
:10C13000FEE7FEE7FEE7FEE7FEE70000240500401D
:10C140005405004089C40100C1C0010030B50B4650
:10C15000014600202022012409E00D46D5409D42E1
:10C1600005D31D469540491B254695404019154667
:10C17000521E002DF1DC30BD03460B439B0703D05C
:10C1800009E008C9121F08C0042AFAD203E00B789C
:10C190000370401C491C521EF9D27047D2B201E014
:10C1A0000270401C491EFBD270470022F6E710B512
:10C1B00013460A4604461946FFF7F0FF204610BD15
:10C1C000F0B51FB40646002082B005464024019118
:10C1D00000901BE0019922460F46304600F042F8DD
:10C1E000049A059B801A994110D31046194622469D
:10C1F00000F028F8361A8F410197224601200021CD
:10C20000009F00F01FF838184D4100902046641E32
:10C210000028DFDC019B00982946324607B0F0BDBC
:10C22000064C0125064E05E0E36807CC2B430C3C89
:10C2300098471034B442F7D3FFF746FFACF0010043
:10C24000CCF0010010B5202A04DB0146203A9140D1
:10C25000002010BD914020239C1A0346E34019435F
:10C26000904010BD10B5202A04DB0846203AD0408B
:10C27000002110BD0B46D340D0402024A21A91408B
:10C280000843194610BD000070B50E48016800292A
:10C2900017D0002404600C4DA8680C4E80B24B21CE
:10C2A000F080090148430A49FFF750FF4100401858
:10C2B00081B2B18007A000F093F90C4901204860D9
:10C2C0002C6070BD00710040007500400028002007
:10C2D000FF030000564444204D6561737572656D1F
:10C2E000656E743A202564206D560A000070004087
:10C2F000F8B50024FF25013501262746009428467D
:10C3000002F080FA002808D034484068304204D057
:10C31000334800212818344301602D1D76007F1C0E
:10C32000ADB2042FEBD3FF207D3002F06BFA002872
:10C3300007D02C4800210160400704432A480069C7
:10C3400000902A4F200712D00126002526420AD04D
:10C350002748AA00111808690969C004C00E89039A
:10C36000BA58890F904776006D1C042DEED3002C2F
:10C3700030DA00241D4E0021301940304156491C4E
:10C3800025D00778BD06AD0E284601F0AFFB800032
:10C390003658002E1BD0BF090121A940154AA8001C
:10C3A00080180068009A8003800F114202D0022892
:10C3B00002D00CE003280AD1032F05D102280AD0AD
:10C3C0000221284602F00EFA39462846B047641C7E
:10C3D000042CCFD3F8BD0321F3E700000063004035
:10C3E000006000407C61004000050050142F0020D8
:10C3F00000650040000700508307FF22DB0E9A40D3
:10C400008907090E994000280BDA0007000F083849
:10C41000830808489B001818C36993430B43C36102
:10C420007047830804489B001B1818689043084312
:10C430001860704700ED00E000E400E010B5064928
:10C440000020086048608860C8600349403908607F
:10C45000486002F0F1FB10BD4011014010B502F040
:10C4600081FB10BD10B507484068002807D0804701
:10C47000002803D00022114600F0FAFC10BD01F0A4
:10C480009BFC10BDD828002010B501F0E3FC00286B
:10C4900005D00E490C484860C8130D4988610D4805
:10C4A000018CC9B201290ED1818C09070BD1018DF4
:10C4B0000906090F042906D1808D0006000F02D15C
:10C4C00005490120886010BDDFFF07C0000500405E
:10C4D000006C0040C00F00F000060040F0B53C4D7D
:10C4E000012185B04902284602F09BF90127002668
:10C4F000384C002823D0FF212531284602F08CF942
:10C5000000281CD0FF2025302E5081203249800089
:10C510008860607D002800D16F600221684601704C
:10C520002E49086808600390E17C68460172E06863
:10C530000190E67406CC6846083C90471DE0042153
:10C54000284602F06EF9002817D0FF21093128464D
:10C5500002F062F9002810D002F010FAE07C217D90
:10C5600088420AD1607D002800D16F6081201A497D
:10C5700080008860207D02F067FAFF211D31284687
:10C5800002F04AF900280DD0A07C218A884202D905
:10C5900002F094FB06E0FF211D316E50002801D00F
:10C5A00002F0E2FBFF214531284602F035F9002870
:10C5B0000CD0FF2045302E50607D002800D02F6029
:10C5C000E07C002802D0207D02F03EFA05B0F0BDEC
:10C5D000002000405C2F0020002300408024004009
:10C5E0000FB410B503A9044B044A029800F024F8D4
:10C5F00010BC08BC04B018475BDD0100D428002043
:10C6000030B47446641E2578641CAB4200D21D46CB
:10C61000635D5B00E31830BC184702E008C8121FD6
:10C6200008C1002AFAD170477047002001E001C11B
:10C63000121F002AFBD17047FFB591B00F46054687
:10C64000002606E025280AD0149A139990476D1CFD
:10C65000761C28780028F5D1304615B0F0BD0024AE
:10C6600000940121F34A029400E004436D1C2B78EE
:10C670000846203B98401042F7D128782A280ED04F
:10C68000022128780246303A092A15D8009A0A234E
:10C690005A43303A80180C436D1C0090F1E701CFEB
:10C6A0000090002805DA012040030443009840422E
:10C6B0000090022004436D1C28782E2815D10420F8
:10C6C000044368786D1C2A280AD101CF6D1C0290A2
:10C6D0000BE002990A225143303940186D1C029038
:10C6E0002878014630390929F3D928786C2810D0E8
:10C6F00006DC4C281AD068280ED06A2817D104E02E
:10C70000742813D07A2812D110E001204005044388
:10C710000CE00121090501E0032109050C436978BA
:10C72000814203D10120000524186D1C6D1C28785E
:10C7300003906E281ED00CDC632831D004DC002866
:10C740008AD0582811D1B2E064287BD069280CD156
:10C7500078E073282DD004DC6F2870D0702804D1C5
:10C76000A7E075286CD078286BD0149A139990475D
:10C77000761C62E06002400F022807D003280AD02E
:10C78000042838680AD006603F1D56E03868F11763
:10C7900006604160F8E738680680F5E70670F3E761
:10C7A0003878694608740020487404A80390012072
:10C7B00003E0386803900020C0433F1D61070FD598
:10C7C000002101E00199491C029A0191914213DA7A
:10C7D0008142F7DB019A0399895C0029F2D10BE0D1
:10C7E000002101E00199491C01918142FADB019A83
:10C7F0000399895C0029F5D101990098139A401A90
:10C8000000902146149B00F03BF9019980194618CD
:10C8100007E0039803990078491C0391149A13992F
:10C8200090470198401E0190401CF2D12146149B74
:10C83000139A009800F014F986196D1C09E741E07D
:10C8400033E034E00A200021049005916002410F9A
:10C85000022905D001CFC2179446032905D007E06D
:10C86000FF1DFF08FF0003CF06E000B2C217944689
:10C87000042902D140B2C1178C460022614694457A
:10C8800006DA0A460021404291418C462D2102E001
:10C89000210504D52B216A461176012103E0E10729
:10C8A00001D02021F7E7019154E00A200BE010208D
:10C8B00009E0102004900021042004430820059181
:10C8C000029003E008200021059104906002410FCE
:10C8D000022905D001CF00229446032906D006E0A4
:10C8E000FF1DFF08FF0003CF8C4603E080B2042940
:10C8F00000D1C0B20021019121072BD503997029E5
:10C9000006D0049A1021059B4A401A4305D00EE038
:10C9100040216A461176012108E06146014306D0B4
:10C9200030216A4611760399517602210191049AC9
:10C930000821059B4A401A430CD16146014301D1AD
:10C94000610707D530216A461176012101910299CC
:10C95000491E02910399582904D037A103910FA9C8
:10C960000F910DE039A1F9E76146059B049AFFF7A5
:10C9700027FC039B8C469B5C0F9A521E0F921370F0
:10C9800061460143F0D10F9807A9081A203003909F
:10C99000600704D5012000048443029801E00120CF
:10C9A00002900399884201DD401A00E000204118FE
:10C9B0000290019809180098401A0090E00306D4EC
:10C9C0002146149B139A009800F05AF8861900200B
:10C9D000049008E006A9085C149A139990470498FB
:10C9E000401C761C049001998842F3DBE0030CD5CF
:10C9F0002146149B139A009800F042F8861904E02F
:10CA0000149A302013999047761C0299481E029080
:10CA10000029F5DC08E00F980F990078491C0F9168
:10CA2000149A13999047761C0399481E0390002985
:10CA3000F1DCFBE60928010030313233343536377A
:10CA4000383961626364656600000000303132335A
:10CA500034353637383941424344454600000000FA
:10CA6000F8B5044600251E461746880404D405E0A0
:10CA700039462020B0476D1C641EF9D52846F8BD04
:10CA8000FFB50446002581B01E46C80301D53027F6
:10CA900000E02027880404D505E038460399B04714
:10CAA0006D1C641EF9D5284605B0F0BD08491A2052
:10CAB00048600849012048600748016803220902CC
:10CAC000090A9207114301600449802008607047F9
:10CAD000007500400073004004E400E000E100E065
:10CAE0000249012008600249086070470075004053
:10CAF00000700040F7B584B0002516880746158001
:10CB0000406B1446002813D003780598032E51D3A8
:10CB10000221017021881122491C89B221804254CE
:10CB20002188491C89B2218043542088401C2080E0
:10CB3000386B00281DD00546208805990246123220
:10CB4000B24237D811220A5420881022401C80B2E9
:10CB500020800A542088401C20800F202A5C2388D3
:10CB6000401ECA54228840B2521C22800028F5DAA6
:10CB70000025384620300290807B002806D03346BE
:10CB80002246059901F08AF9050014D10298407BEC
:10CB9000002806D032462146059800F097FC050093
:10CBA00009D1B878002823D0059886462088001D32
:10CBB000B04202D90C2007B0F0BD684679DF0028EA
:10CBC000F9D1218803207246505420881921401C35
:10CBD00080B22080115420887146401C80B2208091
:10CBE00041186846008802F055F9218840182080D5
:10CBF000F878002817D0218803230A46FB56C91C61
:10CC00000598B142D6D80221815421880122491CBD
:10CC100089B2218042542188491C89B22180435421
:10CC20002088401C20807868002817D021880023A5
:10CC3000C3560A46C91C0598B142BBD8022181548B
:10CC400021880A22491C89B2218042542188491C2A
:10CC500089B2218043542088401C208038890028D4
:10CC60000AD0009438460196062202210830059B1E
:10CC700002F053F905009ED1388A00280AD00094AA
:10CC800038460196072203211030059B02F045F932
:10CC9000050090D1388B00280AD0009438460196C0
:10CCA000152214211830059B02F037F9050082D1B6
:10CCB000386A002806D033462246059900F072FFF4
:10CCC0000500D8D1786A002806D033462246059957
:10CCD00001F0ACFA0500CED10298007B002807D005
:10CCE000334622463846059901F0CCFE0500C2D1F4
:10CCF0003878002807D0334622463846059901F097
:10CD0000C9FA0500B7D1284655E710B5012202211E
:10CD1000002000F035FD002801D0072812D107229D
:10CD20000221012000F02CFD002801D0072809D1A4
:10CD300000210A22084600F023FD002801D0072820
:10CD400000D1002010BD000030B519A103C997B073
:10CD5000149014A815910590072168460182592165
:10CD600001801548029017216846818004253821EA
:10CD700006A8FFF71AFA002468460476C5760F90D5
:10CD8000214606A800F0F0F9002803D00022114641
:10CD900000F06EF818210948FFF707FA0748032149
:10CDA000017044600472A0210182448217B030BD3A
:10CDB000404040404040000008280020142D002042
:10CDC00004484268012109050B46934383600A40E9
:10CDD000C26070470005005070B50024064D06E0A3
:10CDE0006968E000085C012101F0E2FA641C28781F
:10CDF0008442F5D3002070BDA0280020F8B5154668
:10CE00000C460646052A01D20720F8BD01F0A6FB14
:10CE1000002803D101F078FB0028F6D1104900204A
:10CE20004E600C70C8608D6008610E4D0DE0E00032
:10CE300069688019009181786A46517000780A4AC1
:10CE4000694601F005FB0028DFD12046641EE4B2EC
:10CE50000028ECD1054A0021024800F041F8F8BD55
:10CE6000A0280020A4F0010069DD010095DC01008C
:10CE7000BFF34F8F04490348C860BFF34F8F00BF13
:10CE8000FDE700000400FA0500ED00E010B582683F
:10CE9000C368934203D000F04DFF002010BD052071
:10CEA00010BD002906D0002A02D0531E134203D021
:10CEB000092070470E207047016083800021816047
:10CEC000C1600846704710B58268C3689A1A8388A3
:10CED0009A4203D800F038FF002010BD042010BD96
:10CEE000094B9B68002B07D0002A07D0002805D0EB
:10CEF0000068037C002B03D0082070470720704790
:10CF00004174426100207047B4280020FFB59007AB
:10CF1000002581B014460E46002832D11B4F002C4C
:10CF200031D001F009FD0498786103203870334650
:10CF30001821224600204B43BC601834C1008918D8
:10CF40000D704D708E704C601C19401C0328F5DB71
:10CF5000FD607D7001240E48BD702405046003212E
:10CF60001420FFF749FA0B4804600B4C0198A060AD
:10CF700003211120FFF740FA60683861002005B0F6
:10CF8000F0BD0720FBE7BD60FBE70000B4280020F0
:10CF900080E200E000E100E000150140FEB50D4632
:10CFA0001B4917468968044600292AD0002C28D03E
:10CFB000052D01D20720FEBD6069002821D0607CCC
:10CFC000012820D0002601F06BFFC000104901901D
:10CFD00089684018694601F08DFF002815D00121AD
:10CFE00001700C49446049680830E2C00849019862
:10CFF0008968411868460078487001F0F5FD002006
:10D00000FEBD0820FEBD2E46DDE70420FEBD00006B
:10D01000B428002000150140F8B5134D0446A96856
:10D0200000291CD0002C1AD06069002817D00026D7
:10D03000267401F035FFC700A8686946381801F06A
:10D0400059FF00280DD0022101704460A8683918EA
:10D0500068460078487001F0C7FD3046F8BD0820EA
:10D06000F8BD0420F8BD0000B428002010B5044627
:10D0700009488168C2688088511A814207D101211C
:10D08000064801F0CBFA002801D0052010BD21464A
:10D090000148FFF7FBFE10BDF42E0020762800208B
:10D0A00070B50446224888B01E460D0042601CD070
:10D0B000A888296882B21F48FFF7F3FE002815D11F
:10D0C000A889A96882B21B481030FFF7EAFE002841
:10D0D0000CD1202218496846FFF74EF8A068069048
:10D0E0002079002804D0012103E0072008B070BD9A
:10D0F00000216846017506776079002800D00E206F
:10D1000069464875E0780290A078039020780190F5
:10D11000607800900949684601F028FA0028E5D1B6
:10D1200001F0D6FA02480121801C01F077FADDE710
:10D1300074280020F42E002064F00100F1ED0100BD
:10D1400010B50446064801214470401C01F0CCFA99
:10D15000112803D121460348FFF7B5FE10BD00009A
:10D1600074280020042F0020F0B50C4693B01F2136
:10D170006A461180072600279180002809D0C178CF
:10D1800049070DD502A9FFF7B5FC002809D102AD6A
:10D1900001E000251780002C0ED0E078002802D096
:10D1A000304613B0F0BD01AA0AA92046FFF7A2FC41
:10D1B0000028F6D10AAA02E0684600228780684665
:10D1C0008088C3B268460088C1B2284672DFE8E7AB
:10D1D00010B502881C4C102A17D00021112A1AD031
:10D1E000192A11D1807900280ED1607901281ED02A
:10D1F000022822D0032822D0042805D12171E26818
:10D200000846002A00D0904710BD017D0129FBD1BE
:10D210008088208110BD6170808821898842F9D181
:10D22000012005E021690029F4D0884710BD0220C3
:10D2300000F014F80028F5D110BD0320F8E7032012
:10D2400020710420F4E700004028002010B50721D9
:10D250000148FEF7AAFF10BD58280020F0B5754C14
:10D2600087B06071002606A8069601F051FB0127E1
:10D27000082806D000286FD10698002802D0277011
:10D28000D4E00696FFF7E2FF6B4D6878002802D0E5
:10D290006079012805D0A87800280AD06079022892
:10D2A00007D1E168002903D0E7700820884700E033
:10D2B000E6706079012808D16878002809D05D48B7
:10D2C000193001F001FB002803D06079022802D058
:10D2D0000CE002206071A878002805D0554819306C
:10D2E00001F0F2FA002801D103206071287B0028A8
:10D2F00004D16079032801D104206071287E0028C0
:10D3000004D16079042801D166712671E168002991
:10D310000AD06079032801D0042805D12878002894
:10D3200002D06078002818D0A67018216846FEF751
:10D330003CFF6846067001960672039660790128E4
:10D340000FD0022816D03C4E243637465C3F0328C7
:10D350001CD004285ED13BE069E0A7700720884715
:10D36000E3E7344818300190684607704682068229
:10D37000277152E02F4818300190684607702989BC
:10D380004182A98801820220207146E0A88A69466C
:10D390004882288A08822848243001F02DFE00287F
:10D3A00005D02878002802D06078002801D003201A
:10D3B0002FE002206946087204200396F8701E4888
:10D3C00000213838FFF7D0FE002830D1052020E0BA
:10D3D000A88B69460882288C48821748243001F0BF
:10D3E0000BFE002805D02878002802D0607800289D
:10D3F00001D004200DE00220694608720420039643
:10D40000F8700D4800213838FFF7AEFE00280ED125
:10D41000062020716079002803D0684673DF002859
:10D4200005D1E168002901D020798847002007B0A4
:10D43000F0BD000040280020EC2D0020F8B5214C64
:10D44000028800271E4DE689102A15D01E49112A90
:10D4500021D0122A2DD0502A1CD1C288801DB24260
:10D4600018D1028B022A15D1C27E837E1002184386
:10D47000C007C00F0CD112E08188698001461048B6
:10D48000082216310C30FEF777FE6F70002E01D1A6
:10D4900000F0CCFBF8BD0020C04368806F700868C6
:10D4A000FFF7BAFD0028F5D0A1690029F2D088471E
:10D4B000F8BD811D024808220C30FEF75DFEE7E74B
:10D4C00060280020D82E002050F001007CB50546D1
:10D4D00008880C460930904201D90C207CBD684672
:10D4E00071DF0028FAD121880820685420881B2188
:10D4F000401C80B220802954208800A9401C80B2A2
:10D500002080401906220131FEF736FE2088694648
:10D51000801D80B220800978002900D00121295483
:10D520002088401C208000207CBD000010B50446EF
:10D53000FFF784FF2146064800F040F8204601F03E
:10D540008BF92046FFF744FE204600F08DF810BD11
:10D550002C2D002030B5184B0D4604000FCB85B0A4
:10D5600003936B4607C324D0002D22D00020C04374
:10D57000A0822868A0610020A0752146684663DF6C
:10D58000002814D121786846817401210182A21CEF
:10D5900004A90120A0DF002809D12946204601F076
:10D5A00003FA002803D12946204601F09DFB05B06F
:10D5B00030BD0E20FBE7000054F0010000281ED013
:10D5C00000291CD00A88102A14D0112A14D0502AFD
:10D5D00015D1CA88038A891D9A4202D10B8B022B6E
:10D5E0000ED083889A420AD18369002B07D00A8B18
:10D5F0001A311847898801E00021C94381827047A8
:10D60000CA7E8B7E11021943C907C90F00D00121C0
:10D610008175704707B584B000280DD0828A114B00
:10D620009A420BD0827D002A08D06A46128B142AB7
:10D6300006D9072007B000BD0E20FBE70820F9E758
:10D640000022009201920292039282896B461A8014
:10D65000039106A9029101219970808A6946A6DF8B
:10D66000E8E70000FFFF000010B51C4C018860686F
:10D6700010290DD011290AD1401E606007D1FFF793
:10D6800044FB002803D02168002900D0884710BD42
:10D6900000281ED100210122084600F071F8002860
:10D6A00001D0072811D107220221012000F068F8DB
:10D6B000002801D0072808D104220221002000F010
:10D6C0005FF8002805D0072803D02168002900D082
:10D6D00088476068401C606010BD0000382800204A
:10D6E000F8B507460024234802E0641C042C1AD233
:10D6F000A2008258BA42F8D1042C14D21D481E4E02
:10D700000C38002929D001290ED002290BD1600044
:10D71000201880194578002D05D018480169002986
:10D7200001D028468847F8BD61006118755C8E19E4
:10D73000717800290CD011490A2249688068514348
:10D740000E4A521CFFF72AFC002801D10B484770F3
:10D750000A48B17814300155DDE78068FFF75CFCBA
:10D7600006486100611814308919005D8D78A8425F
:10D77000D1D0F8BD20F00100882D00202028002005
:10D7800070B50023042811D2440004190D4D012A5C
:10D7900002D101290DD0002246008019094E8019BE
:10D7A00000290CD0012906D0022906D007231846EB
:10D7B00070BD0D30C2B22A55F9E74270F7E78270AA
:10D7C000F5E70000882D002010B5054A0146127AC1
:10D7D0000020D20702D0084600F054F810BD000027
:10D7E0002028002070B50E46204905464E608D6009
:10D7F00000200A61A9071ED50024012211462046F7
:10D80000FFF7BEFF641C042C02D20028F5D012E002
:10D81000002810D1720804211548FFF7EFFA0028FC
:10D8200009D1FFF7D9FA002805D11148114A002182
:10D830001438FFF755FBE90706D00F220E49920472
:10D840008A600023CB608A6100280DD108480B4A0A
:10D8500000211C38FFF744FB002805D10448084A82
:10D8600001211838FFF73CFB70BD00002028002084
:10D8700030F001007DDA010000050050F1DE01000A
:10D88000C1CD0100FEB57A4D0722EB68D2049A4360
:10D8900002936B6800939C0006461B19002001212F
:10D8A000019389040746734C3300FEF7A9FE180D57
:10D8B0001515374755677C887F8891DE9E9E9E9E12
:10D8C0009EC8CED1D8DEDE140F21029A890491437E
:10D8D000A160E7602F70FEBDA260E76060680F2264
:10D8E00092045040400309D5A160E760022E02D1A6
:10D8F000E120C0000AE07D20400107E0E160A76070
:10D90000022E01D1C82001E0FF2091302E70642149
:10D91000FEF71CFC0099414300223FE0A260E76053
:10D9200060680F2292045040400304D5A160E76074
:10D9300019204001EAE7E160A760E3E7A260E76041
:10D9400060680F2292045040400302D5A160E76056
:10D95000D1E7E160A760D7E7A260E76060680F22C7
:10D9600092045040400302D5A160E76001E0E1600D
:10D97000A7602E700098410000220FE0A260E760CF
:10D9800060680F2292045040400302D5A160E76016
:10D9900001E0E160A7602E7000990022364800681F
:10D9A000FFF7FCFAFEBDA260E7601BE061680120A2
:10D9B000C00402468A43A2600140E16010E0606852
:10D9C0000121C9040A468243A2600840E060E3E7FF
:10D9D00060680121C9040A468243A2600840E060F1
:10D9E0000199C9E7E160A7602DE023484068FFF78F
:10D9F00013FB11218A1B01D0002807D00F22E968F0
:10DA000092041140A160E760EF60FEBD01210905AD
:10DA1000E960012A0CD91046C82148436421FEF769
:10DA200095FB69680022414313484068FFF7B6FA46
:10DA30000F22E96892041140E160A760FEBD0F214A
:10DA40008904A160E7602E70FEBD0722D204AAE718
:10DA50000D218904A160E7600121C904C2E7032107
:10DA60000905A160E7608910BCE70F218904B9E7C7
:10DA7000202800200005005014F0010010B50078A7
:10DA80000221FFF72DFE10BD0022D243830004497E
:10DA90000428CA5002D308182030027770470000CB
:10DAA000142F0020F0B50025ED43002A02D00023FA
:10DAB000042601E0042308260B4C04E09F00E759EC
:10DAC0007F1C04D05B1CB342F8D32846F0BD261857
:10DAD0005DB2203635709E00A151002AF5D1E118C3
:10DAE00020310877F1E70000142F002002490918BF
:10DAF0002020085670470000142F0020F8B5234856
:10DB0000C16800293ED00E6821494C680769C07879
:10DB1000E11B0D022D0AED1C002814D101201D4A25
:10DB2000000450601B4A403A50601B4940000860A6
:10DB30001A4908601A49012008602F20FEF7DAFA16
:10DB400012490120C870B54200D23546E8190002DA
:10DB50000F4B000A403318600D4A5168001B091B27
:10DB60000902090A0002000AC91C814209D9506849
:10DB700018602F20FEF7BEFA0120074940048039C3
:10DB80000860F8BD00F0D8FEF8BD0000B428002001
:10DB9000001501404013014080E200E000E100E098
:10DBA00000100140F8B50646108814468446801DD2
:10DBB0000D46984201D90C20F8BD32880720062A6C
:10DBC000FAD31927FF01184BBA4201D99A42F3D16F
:10DBD00071880629F0D3B94201D99942ECD19A4211
:10DBE00003D0994201D08A42E6D8052160462954E3
:10DBF00020881221401C80B2208029542088401C9B
:10DC000080B220804119308801F044F92188401801
:10DC100080B220804119708801F03CF921884018B9
:10DC200020800020F8BD0000FFFF0000F8B5164876
:10DC300000F002F9144D00260C3D144C002807D0CA
:10DC4000616900291CD001206A461070684616E000
:10DC50002878002805D06169002911D0684606702F
:10DC60000DE0687800280DD0A168094800220068FE
:10DC7000FFF794F9002803D0A169002900D0884754
:10DC80002E70F8BD6168F0E76C280020D82E0020C7
:10DC900050F00100F8B500260124154D23E0696815
:10DCA000F0004718387821462A698140114218D07F
:10DCB0008A432A6100F01EFC3A782146EB689140C5
:10DCC00019400346934099420BD17978012901D03C
:10DCD000012100E000217B684140002B01D010466B
:10DCE0009847761CF6B228788642D8D3F8BD000053
:10DCF000A028002010B50E4900234A788C78A24253
:10DD000012D0521CD2B24A70022A00D14B704A780B
:10DD1000074B920018339A580260086910180002E5
:10DD2000000A0861012010BD0360002010BD000042
:10DD3000B4280020826883881A4003689A5C0A70BD
:10DD40008168491C81607047C26883881A400368F3
:10DD50009954C168491CC160704710B50446C0B2EF
:10DD6000FFF7EEF9204610BDF8B50746104E012525
:10DD7000BD403068FFF750F900280DD10D4C2069E7
:10DD8000284207D1384600F0B5FB0028E06804D0EF
:10DD9000284303E0A8432061F8BDA843E060206960
:10DDA000002228432061A1683068FFF7F7F8F8BD2A
:10DDB000A4F00100A0280020F8B51E4C207800280F
:10DDC00037D02069002807D00026E068002805D059
:10DDD0000025002E04D013E00126F6E70125F8E720
:10DDE000684651DF052806D0002806D000221146DB
:10DDF000FFF73EF804E0012602E021690098884719
:10DE0000002D12D1608869460880A06861DF05286E
:10DE100006D0002806D000221146FFF729F804E0BA
:10DE2000012502E0E168A0688847002ED8D0002DC7
:10DE3000CFD0F8BDD82800204188054802889142FB
:10DE400004D34088814201D80120704700207047E8
:10DE5000642800201048018CC9B2012917D1818C97
:10DE6000090714D1018D09060A0F03D1828D12060C
:10DE7000120F0ED0090F012903D1828D1206120F45
:10DE800007D0032903D1808D0006000F01D00020A8
:10DE90007047012070470000C00F00F030B51588B2
:10DEA000EC1C9C4201D90C2030BD02244C55138837
:10DEB0001C255B1C9BB21380CD5413885B1C9BB24A
:10DEC0001380012807D0022807D0032807D0042890
:10DED00007D0072030BD002004E0012002E0CC5430
:10DEE00001E00320C8541088401C1080002030BD81
:10DEF00010B50448017AC90702D00078FFF7C2FCC8
:10DF000010BD000020280020F8B52C49C8680A6917
:10DF10000C780F7989688646944600913EE0009916
:10DF2000E20055182A7836E0182353436968521CDA
:10DF3000C918AB78D2B2934200D100220B78022BE1
:10DF400002D0032B27D123E04E680346014603E0AD
:10DF5000B14204D00B46C96900291CD0F8E700295A
:10DF600019D08B4208D1C069002805D1144F012671
:10DF7000BE600026B44601270E68C969D961002930
:10DF800009D00B689B190B6005E00174C06900E0C3
:10DF900000210028F9D169789142C5D12146641E3B
:10DFA000E4B20029BBD1054962460A61C8600F711D
:10DFB000704501D00120F8BD0020F8BDB428002034
:10DFC00000100140F8B5044631480026C1680091B0
:10DFD00007784EE02E48F90080680D1843E0002CC9
:10DFE00002D02046E4691FE02878182141436A687E
:10DFF000401CC0B251182870AA78904200D12E70EF
:10E000000A784868012A30D1027C002A2DD18A681A
:10E010004260CA6882600A69C260496981611C49BC
:10E020000979002900D04660194943680A699C466D
:10E03000991A0902174B090A994202D28268891873
:10E0400007E06146511A09028268090A8A4202D928
:10E05000511A016000E0066046600121866001748B
:10E06000C66100F0C9FD002CB9D1287869788842D2
:10E07000BAD138467F1EFFB20028ABD10448C16830
:10E080000098814201D00120F8BD0020F8BD0000B9
:10E09000B4280020FFFF7F008AB050A107C90023E9
:10E0A000059204910390504A05211846FEF72EFF71
:10E0B000002803D000221146FEF7DAFE4B4A6B46D9
:10E0C00007CA07C3FF21013149480690401807914C
:10E0D000099108900323474A06A96846FEF7E0FF26
:10E0E000002803D000221146FEF7C2FE42A0FEF730
:10E0F00077FA002243491046FFF774FB3C49044677
:10E10000002348225C39082000F014FD002803D0C9
:10E1100000221146FEF7ACFE0020019069460290F5
:10E12000087101A860DF002803D000221146FEF725
:10E130009FFE354800F0F4FC002803D00022114671
:10E14000FEF796FE3148019001A93148FFF702FA27
:10E15000002803D000221146FEF78AFEFEF7F4FDE8
:10E16000FEF7A4FC03A92BA0FEF73AFA28481838BA
:10E1700073DF002803D000221146FEF779FE02204B
:10E18000FFF722FB002803D000221146FEF770FEA5
:10E19000200003D000221146FEF76AFEFEF7A0FC25
:10E1A0001D4D0024295D1DA0FEF71AFA641C172CD2
:10E1B000F8DB002448DF002803D000221146FEF7D8
:10E1C00057FE0A2000F0B6F8641C0A2CF2DD002489
:10E1D00014A0FEF705FAFEF783FCEBE753746172B7
:10E1E000742E2E2E0A0000004C2B002008F0010097
:10E1F0004C29002089ED0100496E697469616C0D3C
:10E200000A000000CD0C00002DD5010033E801000C
:10E210002C2D0020257300000828002025303258BE
:10E220000000000070720D0A0900000070B514466D
:10E2300082880E4605462088111D4118921C99427D
:10E2400001D8FE2A01D90C2070BD521C32542088FE
:10E25000FF21401C80B2208031542088401C80B2B5
:10E2600020808119288800F015FE2188401880B28E
:10E270002080AA88002A09D0A968002908D080191E
:10E28000FDF77AFF2088A98840182080002070BD03
:10E29000072070BDF8B50F460178144605460129E0
:10E2A00002D16878002806D02088821C9A422DD896
:10E2B000012902D006E00720F8BD69784118891CC1
:10E2C000994223D8181A801E86B268460680218893
:10E2D000B81C081869467DDF0028EDD1287802288F
:10E2E00005D169460988B14201D809210AE008210F
:10E2F000012805D16878B04202D86A46108001E052
:10E300006846068068460088FE2801D90C20F8BDC2
:10E310002288401CB8542088401C80B22080395488
:10E3200020886946401C20800988401820800020F1
:10E33000F8BD000031B5054C04E0401E00902046B9
:10E34000FDF7C8FE00980028F7D138BDE7030000AC
:10E350008207D30EFF229A408907090E10B5994013
:10E3600000280BDA03071B0F083B9C080C4BA4008A
:10E37000E318DC6994430C43DC6107E08408094B33
:10E38000A400E418236893430B432360C106C90E1D
:10E3900001208840044908600449086010BD00005D
:10E3A00000ED00E000E400E080E200E000E100E0D9
:10E3B000F3B581B00F46019800F092FA01240028CD
:10E3C0001E4E019817D0FFF791FB80192030007F77
:10E3D0008009032802D0012806D007E01848006908
:10E3E00001998C40204201D1022100E003210198D3
:10E3F00000F0F8F9FEBD00F07FFA0028FAD001988D
:10E40000FFF774FB05468100C81D0E4AF9308918D4
:10E410000A6980B222430A610B4940180021016059
:10E42000002FE7D00198FFF761FB800030580028EB
:10E43000E0D00648AC404460FEBD0000142F002030
:10E44000000500500065004000600040006300408F
:10E45000FEB5044623480E460019202141560027E8
:10E46000C8171346401C01D0082738E0F278194637
:10E470002046FFF717FB0546401C2FD0B078002838
:10E4800007D01948A10009180868022290430860C3
:10E4900007E000217378204600910A46019100F0C0
:10E4A00069F9F078002810D01048AA0010183178C7
:10E4B00002690F4B1A400261E206D20C8907890BF0
:10E4C0000A4301690A43026109E0064832784019AB
:10E4D0002030017F92011143017700E00427384684
:10E4E000FEBD0000142F0020000700500065004012
:10E4F000FFE0FCFF03490969C140C807C00F00D015
:10E50000012070470005005070B5124D2879002891
:10E5100001D0082070BD0F4900204039421E0B1861
:10E520002033401CC0B21A702028F8D300242046A3
:10E53000FFF7AAFA641CE4B2082CF8D303210620E2
:10E54000FFF706FF01200449C00748600120287139
:10E55000002070BD542F0020006300400248007965
:10E56000002800D001207047542F0020F3B5044646
:10E57000244881B0807D002801D00820FEBD002CF9
:10E5800000D1214C206800F022F92078012739467B
:10E590001E4E8140B1600021606800F00FF91C4DF3
:10E5A000A0696862607D217D0843E86603CCE8606D
:10E5B0006961207B083C01280ED10021A06800F091
:10E5C000FDF8E06800F003F9207B39468140B16036
:10E5D000E168A068A96028610A4E0298706021690C
:10E5E0003160002806D00C4A217F0A485060022082
:10E5F000FFF7AEFE042028600020F074B074B775F9
:10E600007075FEBD5C2F002084F0010000050050F5
:10E61000002500408000020000230040F8B5294D8D
:10E62000EA7C002A01D01120F8BDE974E8600020DE
:10E630002875687D002801D100F016FA6868224C20
:10E64000002805D081202149800048600020F8BDC5
:10E65000FF212531204600F0DFF80546FF21093172
:10E66000204600F0D9F80746FF214531204600F04A
:10E67000D3F80646394631432943E9D0284630438A
:10E6800006D100F07BF90F48C17C007D8142DFD8C4
:10E69000FF21453100206050FF212531605009499C
:10E6A000002DC87401D00320F8BD002E01D00F202A
:10E6B000F8BD497D0120002901D02060C6E76060D7
:10E6C000C4E700005C2F0020002000400023004031
:10E6D00010B5044C607D002803D100F0C5F901207D
:10E6E000607510BD5C2F0020F8B5204C0026A27C80
:10E6F000002A01D01120F8BDA174A0600020208262
:10E700001B4DFF271D37E8510120A86000F0D6FA05
:10E710006168002911D024E0FF27013729461448F9
:10E7200000F07AF8002802D1208AB842F6D1208A77
:10E73000B84203D000F0C2FA00E03D46A07C218A36
:10E740008842E9D8218AC81FF9380CD0084F2946D9
:10E75000384600F061F80028F9D00120F860002068
:10E76000A0743046F8BD0F26F9E700005C2F0020AA
:10E770000020004030B552000A439900039C0A4330
:10E780002102049D0A4329040A43024980004018DB
:10E79000026030BD0007005030B552000A439900B6
:10E7A000039C0A432102049D0A4329040A430249A7
:10E7B00080004018026030BD000700501CB50022E8
:10E7C0000B46009211460192FFF7E6FF1CBD1CB5F7
:10E7D000002100910B46012201911146FFF7DCFF59
:10E7E0001CBD0000820006481018026803231B04A9
:10E7F0009A430260026809040A43026070470000FD
:10E8000000070050034940180068012800D000208C
:10E8100070470000006000404058002800D00120F0
:10E8200070470322120280184068084000D001207F
:10E83000704770B516460D46002405E0285DFEF7CA
:10E840007FFC0028FAD1641CB442F7D30A20FEF7FB
:10E8500077FC0028FAD170BD70B50188194C0546C7
:10E86000102912D011291BD020464088132924D00A
:10E87000522909D100231A461946A9DF002803D0DE
:10E8800000221146FEF7F4FA70BD0720FEF79CFF48
:10E89000002803D000221146FEF7EAFAA8880AE011
:10E8A0000020FEF791FF002803D000221146FEF75A
:10E8B000DFFA0020C043608070BD00231A46852126
:10E8C0007FDFDBE7002800200021425C002A01D026
:10E8D00001207047491C0629F7D30020704700002B
:10E8E0000449081820214156042901DB0120704702
:10E8F00000207047142F0020044908182021415699
:10E90000042901D20120704700207047142F0020F5
:10E9100007490979490701D408207047002804D025
:10E92000044949780160002070470E2070470000BC
:10E930007C280020742F002070B501240B4960044E
:10E9400008600B4940108860094940398860094DCA
:10E950006C602F20FDF7CEFBAC60074D00242F200C
:10E960002C61FDF7C7FBEC7070BD000080E100E09A
:10E970004013014000100140B4280020FF21074847
:10E98000093100224250064881690648037DC26869
:10E99000D154017D491C01757047000000200040E2
:10E9A000002500405C2F002070B500240546601C47
:10E9B00090B00007000F08A9103008940870601C80
:10E9C0000007000F103048708878F9263040801C0E
:10E9D00088701C2101A8FDF7E8FB69460879102121
:10E9E000084369460871029408A8049405940794A2
:10E9F0000690287808A98871032069468884112028
:10EA00000094087048708878F7213040801C0840D6
:10EA1000EF210840012630436946887014210AA876
:10EA2000FDF7C3FB09A80A9068460B9069460E865D
:10EA300014204C8688862B4668880C330AAA01A9C4
:10EA4000A2DF10B070BD00001FB5012269460A7038
:10EA500008720448C16801910021C17406C8684663
:10EA600090471FBD5C2F0020FF2205482532002162
:10EA70008150FF220932815001210160704700005E
:10EA800000200040FFB50746806A81B01446002888
:10EA90003DD0002538462030009033E00C20B96A84
:10EAA00068430E18B088801CFE2802D90C2005B0DF
:10EAB000F0BD22880299401C885420881622401CF0
:10EAC00080B2208002990A542088401C80B22080A5
:10EAD00002994118308800F0DDF92188401880B291
:10EAE0002080B288002A0AD0B16800290FD0029B8A
:10EAF000C018FDF741FB2088B188401820806D1CAC
:10EB00000098EDB2007BA842C8D80020CFE70720CC
:10EB1000CDE710B508461146C046C04610BD0000FE
:10EB2000002803D00249C860002070470E207047BB
:10EB3000D828002070B5002901D08C0701D007200B
:10EB400070BD064C0125A16062800549636010DF3D
:10EB50000028F5D1257016202EDF70BDD8280020A2
:10EB600013EB0100FEB51F4C00252769E0680290F9
:10EB70006846FFF7BFF80190FFF7C6F9064601980F
:10EB8000002822D000230098E16817E00E680A46AA
:10EB9000864202D9301A086012E0801BF318002662
:10EBA0001660D668D169B446002E07D0FE1836022A
:10EBB000360A566066469660D56115460029E5D14D
:10EBC0002846E160FFF7FEF906E02846FFF7FAF96C
:10EBD000002801D1002E02D00298FEF78FFF0020FE
:10EBE0002071FEBDB4280020012002490005086004
:10EBF0007047000000E200E010B50E4BD968002914
:10EC000006D002680C68A24204D8A21A0A60C16148
:10EC1000D86010BD0B4604E00B46C969121B0029E1
:10EC200004D00C689442F7D3A41A0C600260C1614E
:10EC3000D86110BDB4280020F8B51E4DEC68002C3A
:10EC400036D01D48002740682969401A0602360A56
:10EC50002068B0421AD8361AC7192246107CE469D7
:10EC6000002811D0002010746B69002B09D0916925
:10EC700050699847002807D000221146FEF7F8F89F
:10EC800002E0516990698847002CE1D16978A87841
:10EC9000814206D1401CC0B2A870022801D10020D8
:10ECA000A87004490006800D18310F50FFF79CFF33
:10ECB000F8BD0000B428002000150140FF210748DE
:10ECC0001D31002242500648028A8168895C028A0E
:10ECD000521C02820348C1617047000000200040BE
:10ECE0005C2F00200025004070B58EB005461C2129
:10ECF0006846FDF75AFA694608780C2108436946C8
:10ED000008700024019403940494059406942878D0
:10ED100008A98870022069460884601C0007000F5B
:10ED200010300794087711204877887FF921084030
:10ED3000F721801C0840EF21084001263043694636
:10ED40008877142109A8FDF730FA08A8099007A8C8
:10ED50000A9069468E851420CC85088668882B1D0C
:10ED600009AAA2DF0EB070BD1FB500216A4611705E
:10ED70001072044882680192817406C86846904700
:10ED80001FBD00005C2F002070B50178002909D05C
:10ED9000012901D0022904D1002240681146FEF762
:10EDA00067F870BD104C0F4D20782818FEF75EF9FB
:10EDB0002078401CC2B2A81822702038C07F0A28D0
:10EDC00001D0142AEDD307490848FEF723FC082890
:10EDD00005D0002803D000221146FEF749F8002094
:10EDE000207070BD38290020002800202C2D002024
:10EDF0007CB50178254D01290AD002292FD00029A0
:10EE00002CD129462248FEF741F800282ED031E0C7
:10EE1000406801781E481038FEF755F81C4C103C2D
:10EE2000002805D001216A4611700190684608E06B
:10EE3000A068E168081A012805D100206946087019
:10EE4000684669688847A068E168081AA18888420E
:10EE500004D80E480121801CFFF7E0FB7CBD022195
:10EE60006A461170C068019068460CE001210748AD
:10EE7000FFF73AFC06488168C0688842EED103205B
:10EE8000694608706846696888477CBD7428002018
:10EE9000042F00200870000A48700220704700000C
:10EEA00012494868C005C00D19D0103840B200287A
:10EEB00007DA0207120F083A920892005118C9693E
:10EEC00004E081080A4A8900891809688007C00E91
:10EED000C1400806800F012803D0032803D0022078
:10EEE00070470020704701207047000000ED00E0EF
:10EEF00000E400E042788378521CD2B2934200D101
:10EF000000220378934201D1002070470A704168C3
:10EF100040781822504308187047FFB583B0164652
:10EF20000C9D0D9C1F46022200950194039800F051
:10EF30000CF8002807D13B46102231460095019479
:10EF4000039800F002F807B0F0BDFFB583B00746A4
:10EF500000200C9C8646268805463AE07868A90081
:10EF600042181188684681805188C1800022694614
:10EF700001A865DF002839D16846017805988142EB
:10EF800026D17046002801D0002200E0022220880D
:10EF9000891842180D998A4227D8714600290AD14A
:10EFA000401C80B22080069A049911542088401C8D
:10EFB000208001208646218806980A18694601A803
:10EFC00065DF002812D16946208809784018208022
:10EFD0006D1C3888A842C1DC704600280AD0208801
:10EFE000801B401E80B2FF2802D90C2007B0F0BD64
:10EFF000069988550020F9E70179002902D1007BA4
:10F00000002800D0012070470B09080A0100000009
:10F0100000509D00482D0020682D0020942D0020D8
:10F020001000000011000000130000001400000098
:10F0300010000300E1D6010011000300E1D6010039
:10F0400013000300E1D6010014000300E1D6010023
:10F05000B82E00209ECADC240EE5A9E093F3A3B5E8
:10F060000000406E090000000B0000000A000000D4
:10F0700008000000000000000000000000509D009B
:10F0800003000000090000000B0000000A0000005F
:10F0900008000000000000000000000000509D007B
:10F0A000030000004C30002003000000CCF0010001
:10F0B00000280020F00000001AC60100BCF1010089
:10F0C000F0280020800F00002AC601000000FFFF8A
:10F0D0000000000002150112233445566778899A12
:10F0E000ABBCCDDEEFAB010200FFC30000000000AF
:10F0F0000000000000000000000000000000000010
:10F1000000000000000000000000000000000000FF
:10F1100000000000FFFF00000000000000000000F1
:10F1200000000000000000000000000000000000DF
:10F1300000000000000000000000000000000000CF
:10F1400000000000000000000000000000000000BF
:10F1500000000000000000000000000000000000AF
:10F16000000000000000000000000000000000009F
:10F17000000000000000000000000000000000008F
:10F18000000000000000000000000000000000007F
:10F19000000000000000000000000000000000006F
:10F1A000000000000000000000000000000000005F
:0CF1B00000000000000000000024F4003B
:040000050001C0C175
:00000001FF
